:100000000C9462000C948A000C948A000C948A0070
:100010000C948A000C948A000C948A000C94A5021B
:100020000C948A000C948A000C948A000C948A0028
:100030000C948A000C948A000C948A000C948A0018
:100040000C945B020C948A000C94D4010C94AE01C5
:100050000C948A000C948A000C948A000C948A00F8
:100060000C948A000C948A000000000025002800EF
:100070002B0000000000240027002A0004040404D0
:100080000404040402020202020203030303030342
:10009000010204081020408001020408102001021F
:1000A00004081020000000002300260029000000A2
:1000B0000008000201000003040700000000000027
:1000C00000004E0C11241FBECFEFD8E0DEBFCDBF25
:1000D00011E0A0E0B1E0E2E9FEE102C005900D927E
:1000E000A431B107D9F722E0A4E1B1E001C01D922B
:1000F000AD39B207E1F710E0C2E6D0E004C02197C5
:10010000FE010E94F40CC136D107C9F70E94960483
:100110000C94470F0C940000CF92DF92EF92FF9265
:100120000F931F93CF93DF936C017A018B01C0E093
:10013000D0E0CE15DF0589F0D8016D918D01D60193
:10014000ED91FC910190F081E02DC6010995892B7C
:1001500011F47E0102C02196ECCFC701DF91CF914F
:100160001F910F91FF90EF90DF90CF900895FC01C9
:10017000918D828D981761F0828DDF01A80FB11DDE
:100180005D968C91928D9F5F9F73928F90E0089502
:100190008FEF9FEF0895FC01918D828D981731F0BC
:1001A000828DE80FF11D858D90E008958FEF9FEF10
:1001B0000895FC01918D228D892F90E0805C9F4FE6
:1001C000821B91098F73992708958DE291E00E9417
:1001D000D90021E0892B09F420E0822F0895FC0149
:1001E000848DDF01A80FB11DA35ABF4F2C91848DC0
:1001F00090E001968F739927848FA689B7892C93F5
:10020000A089B1898C9180648C93938D848D98138F
:1002100006C00288F389E02D80818F7D8083089558
:10022000EF92FF920F931F93CF93DF93EC0181E046
:10023000888F9B8D8C8D981305C0E889F989808102
:1002400085FD24C0F62E0B8D10E00F5F1F4F0F733E
:100250001127E02E8C8DE8120CC00FB607FCFACFE8
:10026000E889F989808185FFF5CFCE010E94EF00F2
:10027000F1CF8B8DFE01E80FF11DE35AFF4FF082A5
:100280000B8FEA89FB898081806207C0EE89FF8934
:100290006083E889F98980818064808381E090E0CF
:1002A000DF91CF911F910F91FF90EF900895CF9321
:1002B000DF93EC01888D8823C9F0EA89FB8980816E
:1002C00085FD05C0A889B9898C9186FD0FC00FB640
:1002D00007FCF5CF808185FFF2CFA889B9898C9181
:1002E00085FFEDCFCE010E94EF00E7CFDF91CF91E8
:1002F000089580E090E0892B29F00E94E5008111AB
:100300000C9400000895833081F028F4813099F036
:100310008230A1F008958730A9F08830B9F0843098
:10032000D1F4809180008F7D03C0809180008F7711
:1003300080938000089584B58F7702C084B58F7D47
:1003400084BD08958091B0008F7703C08091B00084
:100350008F7D8093B00008950E94420F1F920F92EC
:100360000FB60F9211242F933F934F935F936F9388
:100370007F938F939F93AF93BF93EF93FF938DE200
:1003800091E00E94EF00FF91EF91BF91AF919F919B
:100390008F917F916F915F914F913F912F910F902E
:1003A0000FBE0F901F9018951F920F920FB60F92CD
:1003B00011242F938F939F93EF93FF93E0913D012F
:1003C000F0913E018081E0914301F091440182FD72
:1003D00012C09081809146018F5F8F7320914701F9
:1003E000821751F0E0914601F0E0E35DFE4F958FFA
:1003F0008093460101C08081FF91EF919F918F9181
:100400002F910F900FBE0F901F9018951F93CF93B1
:10041000DF93282F30E0F901E255FF4F8491F90175
:10042000E057FF4FD491F901E458FF4FC491CC231A
:10043000C9F0162F81110E948301EC2FF0E0EE0F1E
:10044000FF1FE859FF4FA591B4918FB7F894111190
:1004500005C09C91ED2FE095E92302C0EC91ED2BB6
:10046000EC938FBFDF91CF911F9108953FB7F89420
:100470008091190190911A01A0911B01B0911C016A
:1004800026B5A89B05C02F3F19F00196A11DB11DEF
:100490003FBFBA2FA92F982F8827820F911DA11D2A
:1004A000B11DBC01CD0142E0660F771F881F991F67
:1004B0004A95D1F708951F920F920FB60F9211240B
:1004C0002F933F938F939F93AF93BF938091150189
:1004D00090911601A0911701B0911801309114016B
:1004E00023E0230F2D3720F40196A11DB11D05C077
:1004F00026E8230F0296A11DB11D209314018093BD
:10050000150190931601A0931701B09318018091E3
:10051000190190911A01A0911B01B0911C01019643
:10052000A11DB11D8093190190931A01A0931B0185
:10053000B0931C01BF91AF919F918F913F912F91EB
:100540000F900FBE0F901F9018951F920F920FB62D
:100550000F9211242F933F934F935F936F937F9349
:100560008F939F93AF93BF93CF93DF93EF93FF93BB
:100570002091CB0130E0F901E255FF4F8491F90160
:10058000E057FF4FD491F901E458FF4FC491CC23B9
:10059000A1F081110E948301EC2FF0E0EE0FFF1F0C
:1005A000EC55FF4FA591B491EC91ED2331E020E0A3
:1005B00009F430E0832F922F02C080E090E0209178
:1005C000CF013091D0012F5F3F4F3093D001209366
:1005D000CF012091CE01253618F026E02093CA01E4
:1005E0002091CA012430D9F128F4223069F0233057
:1005F000D9F060C0253009F453C0263009F05AC044
:1006000021E020939B0253C0009709F053C0209132
:10061000CF013091D0012436310508F443C0109247
:100620009B021092CE011DC08130910509F042C09D
:10063000E091CE0121E02E0F2093CE01F0E0209139
:10064000CF013091D001EE0FFF1FE653FE4F3087F0
:1006500027831092D0011092CF0124E029C0009787
:10066000B9F4E091CE0121E02E0F2093CE01F0E00D
:100670002091CF013091D001EE0FFF1FE653FE4FC6
:10068000308727831092D0011092CF0123E010C051
:100690002091CF013091D0012536310558F007C0A7
:1006A000009741F41092D0011092CF0103C025E0D1
:1006B0002093CA012091CD012223B9F0892B51F456
:1006C0008091CC01882321F08091CC0161E009C0A8
:1006D0002D9A0BC08091CC01882331F08091CC0100
:1006E00060E00E94060201C02D98FF91EF91DF911A
:1006F000CF91BF91AF919F918F917F916F915F91BA
:100700004F913F912F910F900FBE0F901F90189512
:10071000CF92DF92EF92FF92CF93DF93EC01072EFF
:10072000000C880B990B0E94250E6B017C0120E0C8
:1007300030E040E45FE30E94D50E20E030E048E482
:1007400052E40E947B0D0E94ED0DC617D707D4F02E
:1007500020E030E040EA5FE3C701B6010E94D50E19
:1007600020E030E048E452E40E947B0D20E030E0DD
:1007700040E85FE30E940A0D0E94ED0D21E06C1736
:100780007D070CF420E0822F90E0DF91CF91FF9065
:10079000EF90DF90CF900895CF92DF92EF92FF928B
:1007A0000F931F93CF93DF93CDB7DEB7A1970FB60B
:1007B000F894DEBF0FBECDBF9C0140E050E019A20F
:1007C0008E010F5D1F4F8AE0C82ED12CE12CF12C39
:1007D000CA01B901A70196010E94900C605DF80161
:1007E00062938F01211531054105510589F7309735
:1007F00071F001900020E9F73197AF01401B510BD8
:10080000B8018DE291E00E948C008C0102C000E0F2
:1008100010E042E050E060E171E08DE291E00E9482
:100820008C00800F911FA1960FB6F894DEBF0FBE0B
:10083000CDBFDF91CF911F910F91FF90EF90DF908F
:10084000CF9008958F929F92AF92BF92CF92DF92F6
:10085000EF92FF920F931F93CF93DF93FC01C08120
:10086000D1812091290130912A01C217D3070CF0C0
:100870004BC09E01220F331FE0912701F091280108
:10088000E20FF31F80809180C170DD27F1E0CF2758
:10089000209719F404E610E002C00CE91FEF7A017A
:1008A0005B016C01040F151FB801C4010E9488038D
:1008B000892B99F40E0D1F1DB801C4010E948803F5
:1008C000892B71F4B8016E0D7F1DC4010E9488034D
:1008D000892BE9F023E030E005C021E030E002C0E0
:1008E00022E030E0F5018081918101968217930723
:1008F0003CF0F50111821082F60180819181019610
:1009000091838083CE0105C081E090E002C08FEF2B
:100910009FEFDF91CF911F910F91FF90EF90DF90AC
:10092000CF90BF90AF909F908F900895CF93DF931B
:10093000CDB7DEB72C970FB6F894DEBF0FBECDBF94
:10094000789484B5826084BD84B5816084BD85B5AA
:10095000826085BD85B5816085BD80916E008160B6
:1009600080936E001092810080918100826080935C
:10097000810080918100816080938100809180005E
:100980008160809380008091B10084608093B10089
:100990008091B00081608093B00080917A00846083
:1009A00080937A0080917A00826080937A008091AF
:1009B0007A00816080937A0080917A0080688093C9
:1009C0007A001092C100E0913D01F0913E0182E079
:1009D0008083E0913901F0913A011082E0913B016E
:1009E000F0913C019FEC908310924501E091410110
:1009F000F091420196E09083E0913F01F091400137
:100A0000908190619083E0913F01F091400190814D
:100A100098609083E0913F01F0914001908190684F
:100A20009083E0913F01F091400190819F7D908300
:100A3000F8948093B0008093B10094E69093B30053
:100A40001092B2008093700078948093CA01109243
:100A5000CE018091CB0190E0FC01E057FF4F249143
:100A6000FC01E458FF4F84918823C9F090E0880F7F
:100A7000991FFC01EE58FF4F45915491FC01E85934
:100A8000FF4FA591B4919FB7F894FA01808120950A
:100A9000822380838C91E22FE823EC939FBFE1E9CE
:100AA000F0E02491EDE7F0E08491882399F090E064
:100AB000880F991FFC01EE58FF4FA591B491FC01DE
:100AC000E859FF4F859194918FB7F894EC91E22B00
:100AD000EC938FBF10E2212E312C44244A94542CE5
:100AE000320121ED31E030932801209327018091DC
:100AF000CE0190E090932A018093290180919B027E
:100B000090E090932C0180932B018091CA01853055
:100B100009F08BC28091D3019091D401885891093A
:100B20008D35910588F48091CE01843041F4809117
:100B3000D5019091D6018097479708F492C2809191
:100B4000CE01843408F074C28091CE018A3108F459
:100B50004FC08091D1019091D201843F914068F4BF
:100B600010922601109225014092210150922201FB
:100B7000609223017092240159C08091D301909119
:100B8000D40185974B97A0F5E7EDF1E082E090E086
:100B9000C12CD12C7601AC014F5F5F4F2091CE016B
:100BA00030E0421753075CF4DF0112972D913C911E
:100BB000275031092730310508F49DC2CA01019739
:100BC0009595879590932601809325010C972CF499
:100BD00010922601109225010BC0C0922101D092E3
:100BE0002201E0922301F092240184E090E058C3B6
:100BF0008091CE018A3108F44CC08091D10190914E
:100C0000D2018032934008F4ABCF8091D301909110
:100C1000D401C697869708F48BC23BC0C0922101CD
:100C2000D0922201E0922301F09224018BE090E027
:100C300037C320813181255231092B31310508F02C
:100C400087C2CC0CDD1CEE1CFF1C6894C0F8029619
:100C50003496AC014F5F5F4F2091CE0130E04217D8
:100C6000530754F4DF0112972D913C912C50310918
:100C70002B303105F0F2CA01019795958795909335
:100C80002601809325010C974CF6109226011092B4
:100C900025018091CE01823208F44DC08091D301AC
:100CA0009091D4010697079708F045C0E7EDF1E071
:100CB00022E030E0C12CD12C7601C901019640918F
:100CC000CE0150E084179507E4F4DF0112974D91AF
:100CD0005C9111974E5151094731510508F045C2B9
:100CE000CC0CDD1CEE1CFF1C6894C0F840815181C7
:100CF0003496435051094530510520F42E5F3F4F43
:100D0000DCCFC90101979595879590932601809333
:100D1000250140972CF410922601109225010BC05A
:100D2000C0922101D0922201E0922301F09224018D
:100D30008CE090E0B5C21C821B82E1E0F0E0FA8317
:100D4000E9838091CE018D3008F46FC049E753E00C
:100D5000BE016D5F7F4FCE0101960E942204892B58
:100D600009F063C049E753E0BE016D5F7F4FCE01DC
:100D700001960E942204019709F057C049E753E009
:100D8000BE016D5F7F4FCE0101960E942204892B28
:100D900009F04BC0812C912C540100E010E08091AF
:100DA000CE0190E029813A81281739075CF549E79F
:100DB00053E0BE016D5F7F4FCE0101960E94220479
:100DC0007C0149E753E0BE016D5F7F4FCE01019684
:100DD0000E942204F1E0EF16F10449F4892B29F571
:100DE000880C991CAA1CBB1C689480F808C0EF28CA
:100DF000E1F40197D1F4880C991CAA1CBB1C0F5F6D
:100E00001F4FCDCF10932601009325018092210121
:100E100090922201A0922301B092240121E030E0BF
:100E200030931E0120931D01BEC01C821B8281E0F5
:100E300090E09A8389838091290190912A01181664
:100E400019060CF058C0E0912701F091280182E0CA
:100E500090E09A8389838281938189974E9708F0E5
:100E60004AC023E030E03A832983848195810B973F
:100E70000A9708F040C04CEB51E0BE016D5F7F4F18
:100E8000CE0101960E942204892BA9F54CEB51E07A
:100E9000BE016D5F7F4FCE0101960E942204019733
:100EA00051F5812C912C540100E010E029813A8108
:100EB0008091290190912A01281739070CF098C1D7
:100EC0004CEB51E0BE016D5F7F4FCE0101960E9459
:100ED00022046C010330110509F054C14CEB51E0C0
:100EE000BE016D5F7F4FCE0101960E942204C8169D
:100EF000D90609F447C1E0912701F09128018281C8
:100F00009381C697869708F091C1848195814B970C
:100F1000459708F08BC1DF0116967F0136ECE30E92
:100F2000F11C20E030E040E050E060E070E080E064
:100F300090E0CD90DC90119719E0C11AD10818E02B
:100F4000C116D10408F072C11296CD90DC901397AF
:100F500011E1C11AD1081DE0C116D10408F057C132
:100F600001E00E94BD0C21601496AE15BF0509F783
:100F700020932101309322014093230150932401B7
:100F800000E20E94D80C20931F013093200185E0DD
:100F900090E090931E0180931D0180E390E0909378
:100FA0002601809325010091210110912201C801A1
:100FB0000E94CC030F33B0EC1B0779F561E081E0B0
:100FC0000E9406020E9436024B015C0188EEC82E88
:100FD00083E0D82EE12CF12C0E943602DC01CB01FB
:100FE00088199909AA09BB09883E9340A105B10552
:100FF00058F031E0C31AD108E108F10888EE880EF4
:1010000083E0981EA11CB11CC114D104E104F104B9
:1010100019F760E081E00E940602C8010E94CC033B
:1010200082E08093CA011092CE010E94790159CDCD
:101030008091D5019091D601825491098E9708F044
:1010400083CD80E090E040E050E0BA01FC01E9523D
:10105000FE4F208131812950310929303105E0F0DE
:1010600073CD8091D7019091D8010997099708F025
:1010700066CD1092260110922501409221015092D6
:1010800022016092230170922401E3E0F0E0F093EA
:101090001E01E0931D0187CFFC01E752FE4F208126
:1010A00031812751310922313105C0F4440F551FD8
:1010B000661F771F416004968038910539F630929B
:1010C0002601209225014093210150932201609333
:1010D00023017093240183E090E0E2C020813181FC
:1010E000265031092730310508F02ECD440F551F09
:1010F000661F771FE0CF20813181235131092F30C6
:10110000310548F4CC0CDD1CEE1CFF1C6894C0F8C3
:101110000296349640CD208131812A503109293000
:10112000310508F065CDCC0CDD1CEE1CFF1CF0CFAA
:101130008091D5019091D601C697869708F0A9CDE8
:10114000E9EDF1E083E090E0C12CD12C760181CD76
:10115000208131812C5031092A30310508F099CD98
:10116000CC0CDD1CEE1CFF1C72CD4D915C914C50E3
:1011700051094B30510508F0DECDCC0CDD1CEE1CC6
:10118000FF1CB4CD4CEB51E0BE016D5F7F4FCE0133
:1011900001960E9422047C010330110569F44CEB96
:1011A00051E0BE016D5F7F4FCE0101960E94220487
:1011B000E816F90609F09FCEC114D10459F4EA9457
:1011C000EF2809F098CE880C991CAA1CBB1C6894C7
:1011D00080F80BC0CA94CD2809F08DCEEF2809F015
:1011E0008ACE880C991CAA1CBB1C0F5F1F4F5ECEB9
:1011F00010932601009325018092210190922201F3
:10120000A0922301B092240182E090E049C012969E
:10121000CD90DC90139714E0C11AD10815E0C116E7
:10122000D10420F401E00E94BD0C9ECE8091CE013D
:10123000893340F0828193818957910983359105E3
:1012400008F448C18091CE01823279F18281938184
:10125000895791098335910508F4B7C1828193813B
:101260008C549109C59768F58091CE01843021F5A1
:101270008481958180974797F8F4868197810997B3
:101280000997D0F410922601109225014092210175
:1012900050922201609223017092240187E090E035
:1012A00090931E0180931D017ECE828193810A97C7
:1012B000099708F46EC1CACF8091CE01843408F03A
:1012C000E9C18091CE01863460F1828193810C97CF
:1012D0000B9708F42EC225C0D90112966D917C910E
:1012E00013976E5171096731710508F058C2D70123
:1012F000C601880F991FAA1FBB1F6C017D0168944E
:10130000C0F84E5F5F4F2C5F3F4F4534510509F4E5
:101310002BC2D9016D917C916C5071096B307105B4
:10132000D8F28091CE01883578F1828193818558F9
:1013300091098B35910508F442C226C0BC016F5F4C
:101340007F4FD8014D915C9147505109473051056D
:1013500008F044C2220F331F216002960C5F1F4F1A
:101360004091CE0150E044505109841795070CF08C
:101370003EC2A80142505109DA014D915C91495099
:10138000510948305105D0F28091CE018032E1F40C
:101390008281938106970697B8F484819581099795
:1013A000099790F49F012A5F3F4FBF01625C7F4F16
:1013B000C12CD12C7601D9014D915C914650510937
:1013C0004630510508F42FC22091290130912A019D
:1013D00038872F83263031050CF422CE8F010A5F27
:1013E0001F4F25ECC22E2DE9D22E2CE1E22E21E852
:1013F000F22E83E090E09E838D83D8016D917C91E5
:10140000F8013497A080B18080E090E00E94230E24
:1014100069877A878B879C87B50180E090E00E947E
:10142000230E4B015C012DEC3CEC4CE45FE30E948D
:10143000D50E9B01AC0169857A858B859C850E94C0
:10144000760D87FD19C02DEC3CEC4CE45FE369851B
:101450007A858B859C850E94D50E9B01AC01C501C8
:10146000B4010E94760DE82F880FFF0BEE27FF0FC7
:10147000EE1FFF27319602C0E0E0F0E0A7019601E1
:1014800063E971E080E091E00E94800C6F01FF0F42
:10149000EE08FF08C626D726E826F926ED81FE814C
:1014A0003196FE83ED830E5F1F4F2F813885E21743
:1014B000F30709F0A2CFC0922101D0922201E0925D
:1014C0002301F092240130922601209225018FEF12
:1014D0009FEFE6CE84819581CA97899708F0B2CEB6
:1014E0009F012A5F3F4FC12CD12C760143E050E091
:1014F000D9016D917C916A5071096930710508F0CC
:10150000A1CED90112966D917C9113976651710904
:101510006131710570F5D701C601880F991FAA1FA7
:10152000BB1F6C017D016894C0F84E5F5F4F2C5F5C
:101530003F4F4B335105E1F69F012A583F4FD901E8
:101540002D913C912A5031092930310508F07ACE8D
:101550002CE130E03093260120932501C092210137
:10156000D0922201E0922301F09224018AE090E0DF
:1015700097CED90112966D917C911397665071099F
:101580006730710508F05ECECC0CDD1CEE1CFF1C34
:10159000CCCF2091CE01CF01820F911D820F911DE2
:1015A000DC0112978D919C910A97099708F04ECE15
:1015B00010922601109225014092210150922201A1
:1015C000609223017092240162C08091CE01813229
:1015D00008F444CE84819581CA97899708F03ECE5D
:1015E0009F012A5F3F4FC12CD12C760143E050E090
:1015F000D9016D917C916A5071096930710508F0CB
:101600002DCED90112966D917C9113976651710977
:101610006131710560F5D701C601880F991FAA1FB6
:10162000BB1F6C017D016894C0F84E5F5F4F2C5F5B
:101630003F4F43325105E1F69F012A5B3F4FD901ED
:101640002D913C912A5031092930310508F006CE00
:10165000E0E1F0E0F0932601E0932501C092210142
:10166000D0922201E0922301F092240110C0D9010E
:1016700012966D917C9113976650710967307105D0
:1016800008F0ECCDCC0CDD1CEE1CFF1CCECF86E0B0
:1016900090E006CE8481958189549109C39708F022
:1016A00010CE9F012A5F3F4FBF016A577F4FC12C69
:1016B000D12C7601D9014D915C91495051094930A5
:1016C000510508F0FECDD90112964D915C9113970A
:1016D0004651510941315105E0F4D701C601880F47
:1016E000991FAA1FBB1F6C017D016894C0F82C5F75
:1016F0003F4F26173707F1F6309226012092250139
:10170000C0922101D0922201E0922301F0922401A3
:10171000C5CDD90112964D915C9113974650510950
:101720004730510508F0CDCDCC0CDD1CEE1CFF1C64
:10173000DECF848195810997099708F0F2CD8681E3
:1017400097818C974F9708F0ECCD8085918589978C
:101750004D9708F0E6CD9F01265F3F4FC12CD12C5D
:10176000760145E050E0D5CD9F0126573F4FD90186
:101770002D913C912C5031092B30310508F0D1CD01
:101780003092260120922501C0922101D09222019F
:10179000E0922301F092240188E090E081CDD9010C
:1017A00012966D917C91139769507109693071059A
:1017B00008F0B7CDCC0CDD1CEE1CFF1CA2CD848143
:1017C0009581825491098E9708F0DECD8F01045CDB
:1017D0001F4F8DE190E020E030E0C2CDD8014D9167
:1017E0005C914851510942315105D0F0CB0101972C
:1017F0009595879590932601809325018A970CF4FF
:10180000C3CDC901330FAA0BBB0B80932101909369
:101810002201A0932301B093240189E090E040CD00
:10182000220F331F9ACDD90112964D915C911397D7
:10183000495151094331510508F5D701C601880FB7
:10184000991FAA1FBB1F6C017D016894C0F82C5F13
:101850003F4F2617370709F0AECD2EE030E030932A
:10186000260120932501C0922101D0922201E0920D
:101870002301F09224018FE090E012CDD90112965D
:101880004D915C911397495051094930510508F029
:101890009BCDCC0CDD1CEE1CFF1CD9CFEDE2F1E0A2
:1018A0001382128288EE93E0A0E0B0E084839583F7
:1018B000A683B78384E091E09183808385EC90E0F8
:1018C0009587848784EC90E09787868780EC90E00A
:1018D000918B808B81EC90E0938B828B82EC90E0FB
:1018E000958B848B86EC90E0978B868B118E128E75
:1018F000138E148EEAECF1E087E081831382089561
:10190000DB018F939F930E94B20CBF91AF91A29F76
:10191000800D911DA39F900DB29F900D11240895ED
:10192000A1E21A2EAA1BBB1BFD010DC0AA1FBB1FE3
:10193000EE1FFF1FA217B307E407F50720F0A21B55
:10194000B30BE40BF50B661F771F881F991F1A94C2
:1019500069F760957095809590959B01AC01BD01EC
:10196000CF0108950E94FA0CA59F900DB49F900D91
:10197000A49F800D911D112408950F93083090F0BD
:10198000982F872F762F652F542F432F322F222702
:101990000850F4CF220F331F441F551F661F771FB7
:1019A000881F991F0A95B2F70F91089597FB10F8B9
:1019B000169400080F93083098F00850232F342F06
:1019C000452F562F672F782F892F902DF4CF059410
:1019D0009795879577956795579547953795279567
:1019E0000A95AAF70F910895EE0FFF1F0590F49145
:1019F000E02D0994A29FB001B39FC001A39F700D79
:101A0000811D1124911DB29F700D811D1124911D06
:101A100008955058BB27AA270E94210D0C949B0EB5
:101A20000E948D0E38F00E94940E20F039F49F3FF2
:101A300019F426F40C948A0E0EF4E095E7FB0C944E
:101A4000840EE92F0E94AC0E58F3BA176207730791
:101A50008407950720F079F4A6F50C94CE0E0EF4C9
:101A6000E0950B2EBA2FA02D0B01B90190010C01AE
:101A7000CA01A0011124FF27591B99F0593F50F4C6
:101A8000503E68F11A16F040A22F232F342F44271E
:101A9000585FF3CF469537952795A795F040539516
:101AA000C9F77EF41F16BA0B620B730B840BBAF0E6
:101AB0009150A1F0FF0FBB1F661F771F881FC2F751
:101AC0000EC0BA0F621F731F841F48F48795779565
:101AD0006795B795F7959E3F08F0B0CF9395880F1F
:101AE00008F09927EE0F9795879508950E94600E4C
:101AF00008F481E008950E948F0D0C949B0E0E94C3
:101B0000940E58F00E948D0E40F029F45F3F29F0AA
:101B10000C94840E51110C94CF0E0C948A0E0E94DA
:101B2000AC0E68F39923B1F3552391F3951B550B34
:101B3000BB27AA2762177307840738F09F5F5F4FA0
:101B4000220F331F441FAA1FA9F335D00E2E3AF0DF
:101B5000E0E832D091505040E695001CCAF72BD0F7
:101B6000FE2F29D0660F771F881FBB1F2617370748
:101B70004807AB07B0E809F0BB0B802DBF01FF277A
:101B800093585F4F3AF09E3F510578F00C94840EC5
:101B90000C94CF0E5F3FE4F3983ED4F3869577958F
:101BA0006795B795F7959F5FC9F7880F911D969533
:101BB000879597F90895E1E0660F771F881FBB1F8F
:101BC000621773078407BA0720F0621B730B840B3C
:101BD000BA0BEE1F88F7E09508950E94F40D689403
:101BE000B1110C94CF0E08950E94B40E88F09F5747
:101BF00098F0B92F9927B751B0F0E1F0660F771F31
:101C0000881F991F1AF0BA95C9F714C0B13091F026
:101C10000E94CE0EB1E008950C94CE0E672F782F5F
:101C20008827B85F39F0B93FCCF3869577956795EB
:101C3000B395D9F73EF490958095709561957F4F57
:101C40008F4F9F4F0895E89409C097FB3EF49095FD
:101C50008095709561957F4F8F4F9F4F9923A9F085
:101C6000F92F96E9BB279395F69587957795679514
:101C7000B795F111F8CFFAF4BB0F11F460FF1BC058
:101C80006F5F7F4F8F4F9F4F16C0882311F096E9EB
:101C900011C0772321F09EE8872F762F05C0662399
:101CA00071F096E8862F70E060E02AF09A95660F52
:101CB000771F881FDAF7880F9695879597F908950B
:101CC000990F0008550FAA0BE0E8FEEF161617064D
:101CD000E807F907C0F012161306E407F50798F0B5
:101CE000621B730B840B950B39F40A2661F0232BCE
:101CF000242B252B21F408950A2609F4A140A6954A
:101D00008FEF811D811D089597F99F6780E870E02E
:101D100060E008959FEF80EC089500240A94161661
:101D2000170618060906089500240A9412161306C9
:101D3000140605060895092E0394000C11F4882357
:101D400052F0BB0F40F4BF2B11F460FF04C06F5F73
:101D50007F4F8F4F9F4F089557FD9058440F551F49
:101D600059F05F3F71F04795880F97FB991F61F01D
:101D70009F3F79F087950895121613061406551F94
:101D8000F2CF4695F1DF08C0161617061806991F00
:101D9000F1CF86957105610508940895E894BB27F5
:101DA00066277727CB0197F908950E94E80E0C94D7
:101DB0009B0E0E948D0E38F00E94940E20F0952309
:101DC00011F00C94840E0C948A0E11240C94CF0EF6
:101DD0000E94AC0E70F3959FC1F3950F50E0551F14
:101DE000629FF001729FBB27F00DB11D639FAA2770
:101DF000F00DB11DAA1F649F6627B00DA11D661FBF
:101E0000829F2227B00DA11D621F739FB00DA11DDF
:101E1000621F839FA00D611D221F749F3327A00D99
:101E2000611D231F849F600D211D822F762F6A2F35
:101E300011249F5750409AF0F1F088234AF0EE0F9A
:101E4000FF1FBB1F661F771F881F91505040A9F7C7
:101E50009E3F510580F00C94840E0C94CF0E5F3F92
:101E6000E4F3983ED4F3869577956795B795F79503
:101E7000E7959F5FC1F7FE2B880F911D969587957B
:101E800097F9089581E090E0F8940C94470FF89446
:021E9000FFCF82
:101E92000000000010018C00D900B700CB005701F0
:041EA2000D0A000025
:107800000C94343C0C94513C0C94513C0C94513CE1
:107810000C94513C0C94513C0C94513C0C94513CB4
:107820000C94513C0C94513C0C94513C0C94513CA4
:107830000C94513C0C94513C0C94513C0C94513C94
:107840000C94513C0C94513C0C94513C0C94513C84
:107850000C94513C0C94513C0C94513C0C94513C74
:107860000C94513C0C94513C11241FBECFEFD8E036
:10787000DEBFCDBF11E0A0E0B1E0ECE9FFE702C060
:1078800005900D92A230B107D9F712E0A2E0B1E065
:1078900001C01D92AD30B107E1F70E942D3D0C945F
:1078A000CC3F0C94003C982F959595959595959582
:1078B000905D8F708A307CF0282F295A8091C0000B
:1078C00085FFFCCF9093C6008091C00085FFFCCF60
:1078D0002093C6000895282F205DF0CF982F809127
:1078E000C00085FFFCCF9093C6000895EF92FF92F1
:1078F0000F931F93EE24FF2487018091C00087FD22
:1079000017C00894E11CF11C011D111D81E4E8164B
:1079100082E4F8068FE0080780E0180770F3E09132
:107920000401F091050109958091C00087FFE9CF1E
:107930008091C6001F910F91FF90EF9008950E94D3
:10794000763C982F8091C00085FFFCCF9093C600B5
:1079500091362CF490330CF09053892F089597555D
:10796000892F08951F930E949F3C182F0E949F3CCF
:107970001295107F810F1F9108951F93182F882350
:1079800021F00E94763C1150E1F71F9108951F935A
:10799000182F0E94763C803249F0809103018F5F5E
:1079A000809303018530C1F01F9108958091C0003C
:1079B00085FFFCCF84E18093C6008091C00085FFE5
:1079C000FCCF1093C6008091C00085FFFCCF80E102
:1079D0008093C6001F910895E0910401F091050184
:1079E00009951F9108950E94763C803241F0809164
:1079F00003018F5F80930301853081F008958091AA
:107A0000C00085FFFCCF84E18093C6008091C00058
:107A100085FFFCCF80E18093C6000895E0910401CA
:107A2000F09105010995089540E951E08823A1F0FE
:107A30002D9A28EE33E0FA013197F1F721503040CA
:107A4000D1F72D9828EE33E0FA013197F1F7215064
:107A50003040D1F7815061F708953F924F925F9285
:107A60006F927F928F929F92AF92BF92CF92DF924E
:107A7000EF92FF920F931F93CF93DF93000080E16B
:107A80008093C4001092C50088E18093C10086E015
:107A90008093C2005098589A259A81E00E94143D24
:107AA00024E1F22E9EE1E92E85E9D82E0FE0C02ECA
:107AB00010E1B12EAA24A394B1E49B2EA6E58A2E50
:107AC000F2E57F2EE0E26E2E79E4572E63E5462E36
:107AD00050E5352E0E94763C8033B1F18133B9F107
:107AE000803409F46FC0813409F476C0823409F41B
:107AF00085C0853409F488C0803531F1823521F1A3
:107B0000813511F1853509F485C0863509F48DC0BC
:107B1000843609F496C0843709F403C1853709F423
:107B200072C1863709F466C0809103018F5F80932C
:107B30000301853079F6E0910401F0910501099582
:107B40000E94763C803351F60E94F33CC3CF0E94E2
:107B5000763C803249F78091C00085FFFCCFF092DF
:107B6000C6008091C00085FFFCCF9092C600809136
:107B7000C00085FFFCCF8092C6008091C00085FFC9
:107B8000FCCF7092C6008091C00085FFFCCF609250
:107B9000C6008091C00085FFFCCF5092C600809146
:107BA000C00085FFFCCF4092C6008091C00085FFD9
:107BB000FCCF3092C6008091C00085FFFCCFB09210
:107BC000C60088CF0E94763C863808F4BDCF0E945C
:107BD000763C0E94F33C7ECF0E94763C803809F4CC
:107BE0009CC0813809F40BC1823809F43CC1883942
:107BF00009F48FC080E00E94C73C6CCF84E10E94F2
:107C0000BD3C0E94F33C66CF85E00E94BD3C0E94D3
:107C1000F33C60CF0E94763C809306010E94763C44
:107C2000809307010E94F33C55CF0E94763C80333D
:107C300009F41DC183E00E94BD3C80E00E94C73C66
:107C400049CF0E94763C809309020E94763C809343
:107C5000080280910C028E7F80930C020E94763C79
:107C6000853409F415C18091080290910902892B8D
:107C700089F000E010E00E94763CF801E85FFE4FDA
:107C800080830F5F1F4F80910802909109020817AF
:107C9000190788F30E94763C803209F045CF809125
:107CA0000C0280FF01C16091060170910701660F0F
:107CB000771F7093070160930601A0910802B091AD
:107CC00009021097C9F0E8E0F1E09B01AD014E0F09
:107CD0005F1FF999FECF32BD21BD819180BDFA9A17
:107CE000F99A2F5F3F4FE417F50799F76A0F7B1F4B
:107CF00070930701609306018091C00085FFFCCF5F
:107D0000F092C6008091C00085FFFCCFB092C60003
:107D1000E1CE83E00E94C73CDDCE82E00E94C73CFA
:107D2000D9CE0E94763C809309020E94763C8093D3
:107D300008028091060190910701880F991F909386
:107D40000701809306010E94763C853409F4A6C0A1
:107D500080910C028E7F80930C020E94763C8032D0
:107D600009F0B8CE8091C00085FFFCCFF092C6002C
:107D7000609108027091090261157105B9F140E046
:107D800050E080910C02A82FA170B82FB27011C0E2
:107D9000BB2309F45CC0E0910601F0910701319624
:107DA000F0930701E09306014F5F5F4F46175707B7
:107DB000E8F4AA2369F3F999FECF209106013091E6
:107DC000070132BD21BDF89A90B58091C00085FFB2
:107DD000FCCF9093C6002F5F3F4F30930701209355
:107DE00006014F5F5F4F4617570718F38091C00099
:107DF00085FDE5CE8091C00085FFF8CFE0CE81E023
:107E00000E94C73C67CE0E94763C803209F08CCE3F
:107E10008091C00085FFFCCFF092C6008091C00029
:107E200085FFFCCFE092C6008091C00085FFFCCFAB
:107E3000D092C6008091C00085FFFCCFC092C600E2
:107E40008091C00085FFFCCFB092C60043CEE09188
:107E50000601F091070194918091C00085FFFCCF4D
:107E60009093C6009CCF80E10E94C73C33CE0E9415
:107E7000763C0E94763C182F0E94763C112309F430
:107E800083C0113009F484C08FE00E94C73C22CE29
:107E900080910C02816080930C02E5CE80910C02EF
:107EA000816080930C0259CF809107018823880F4D
:107EB000880B8A2180930B02809106019091070123
:107EC000880F991F90930701809306018091080203
:107ED00080FF09C080910802909109020196909359
:107EE000090280930802F894F999FECF1127E091D6
:107EF0000601F0910701C8E0D1E08091080290915D
:107F00000902103091F40091570001700130D9F34B
:107F100003E000935700E89500915700017001308D
:107F2000D9F301E100935700E89509901990009169
:107F3000570001700130D9F301E000935700E89534
:107F40001395103498F011270091570001700130FB
:107F5000D9F305E000935700E895009157000170B0
:107F60000130D9F301E100935700E895329602976A
:107F700009F0C7CF103011F00296E5CF112480919F
:107F8000C00085FFB9CEBCCE8EE10E94C73CA2CD19
:0C7F900085E90E94C73C9ECDF894FFCF0D
:027F9C00800063
:040000030000780081
:00000001FF
